:100000000C942D000C944F020C944F020C944F0250
:100010000C944F020C944F020C944F020C944F021C
:100020000C944F020C944F020C944F020C944F020C
:100030000C944F020C944F020C944F020C944F02FC
:100040000C944F020C944F020C944F020C944F02EC
:100050000C944F0200600063800011241FBECFE5A6
:10006000D8E0DEBFCDBFE4E5F0E040E017C0B591D9
:10007000A59135912591059107FD0CC0959185912C
:10008000EF01F92FE82F05900D92A217B307D9F7CA
:10009000FE0104C01D92A217B307E1F7E935F4078A
:0E00A00031F70E94EF010C945500F894FFCF49
:1000AE000E94260258F00E941F0240F029F45F3F82
:1000BE0029F00C943A0251110C942E020C944C021D
:1000CE000E94970168F39923B1F3552391F3951B81
:1000DE00550BBB27AA2762177307840738F09F5F5B
:1000EE005F4F220F331F441FAA1FA9F335D00E2EC8
:1000FE003AF0E0E832D091505040E695001CCAF735
:10010E002BD0FE2F29D0660F771F881FBB1F2617F7
:10011E0037074807AB07B0E809F0BB0B802DBF01CE
:10012E00FF2793585F4F3AF09E3F510578F00C949D
:10013E003A020C942E025F3FE4F3983ED4F3869578
:10014E0077956795B795F7959F5FC9F7880F911DBE
:10015E009695879597F90895E1E0660F771F881FAA
:10016E00BB1F621773078407BA0720F0621B730B5D
:0C017E00840BBA0BEE1F88F7E095089583
:10018A000E941F0238F00E94260220F039F49F3F95
:10019A0019F426F40C944C020EF4E095E7FB0C9447
:1001AA003A02E92F0E94970158F3BA1762077307B8
:1001BA008407950720F079F4A6F50C942D020EF425
:1001CA00E0950B2EBA2FA02D0B01B90190010C015D
:1001DA00CA01A0011124FF27591B99F0593F50F475
:1001EA00503E68F11A16F040A22F232F342F4427CD
:1001FA00585FF3CF469537952795A795F0405395C5
:10020A00C9F77EF41F16BA0B620B730B840BBAF094
:10021A009150A1F0FF0FBB1F661F771F881FC2F7FF
:10022A000EC0BA0F621F731F841F48F48795779513
:10023A006795B795F7959E3F08F0B0CF9395880FCD
:0C024A0008F09927EE0F9795879508950E
:10025600E89409C097FB3EF490958095709561955A
:100266007F4F8F4F9F4F9923A9F0F92F96E9BB2710
:100276009395F695879577956795B795F111F8CF8C
:10028600FAF4BB0F11F460FF1BC06F5F7F4F8F4FF7
:100296009F4F16C0882311F096E911C0772321F0ED
:1002A6009EE8872F762F05C0662371F096E8862F85
:1002B60070E060E02AF09A95660F771F881FDAF7DC
:0A02C600880F9695879597F9089523
:1002D0000E949F0188F09F5798F0B92F9927B75136
:1002E000B0F0E1F0660F771F881F991F1AF0BA95DA
:1002F000C9F714C0B13091F00E942D02B1E0089509
:100300000C942D02672F782F8827B85F39F0B93FFA
:10031000CCF3869577956795B395D9F73EF490958C
:0E0320008095709561957F4F8F4F9F4F089588
:10032E0057FD9058440F551F59F05F3F71F0479598
:10033E00880F97FB991F61F09F3F79F0879508957D
:10034E00121613061406551FF2CF4695F1DF08C09C
:10035E00161617061806991FF1CF869571056105B9
:04036E000894089552
:10037200892BB9F06C9A8DB1643071051CF0962FFF
:10038200987F01C0962F892B8DB98EB191E0643090
:1003920071050CF490E0892B8EB987B3806B87BB13
:0A03A20002C06C98BE9A6E9A08958E
:1003AC00BC01990F880B990B0E942D019B01AC018C
:1003BC0060E074E284E799E40E94480220E030E0B7
:1003CC0040E85FE30E9411020E94180269B970BDF7
:0203DC00089582
:1003DE0080E895E20E94340263E070E081E090E0F4
:1003EE000E94B9010E944002809361000E94440263
:0203FE00F9CF35
:10040000092E0394000C11F4882352F0BB0F40F422
:10041000BF2B11F460FF04C06F5F7F4F8F4F9F4F62
:0204200008953D
:0E0422005058BB27AA270E94D6000C94000257
:0E0430000E9468016894B1110C942E02089588
:0E043E0000240A9416161706180609060895DB
:0E044C0000240A9412161306140605060895DD
:0E045A00E894BB2766277727CB0197F9089512
:0C0468002AB128612AB90E94D60108952B
:0C04740097F99F6780E870E060E0089551
:080480005F9BFECF8CB10895D3
:080488008FB9779BFECF0895A8
:080490000E9467000C940002B9
:060498009FEF80EC0895C7
:04049E000C940000BA
:00000001FF
