:100000000C942A000C9479000C9479000C947900DB
:100010000C9479000C9479000C9479000C9479007C
:100020000C9479000C9479000C9479000C9479006C
:100030000C9479000C9479000C9479000C9479005C
:100040000C9479000C9479000C9479000C9479004C
:100050000C94790011241FBECFE5D8E0DEBFCDBFE0
:0C0060000E9453000C943400F894FFCF71
:10006C00892BB9F06C9A8DB1643071051CF0962F08
:10007C00987F01C0962F892B8DB98EB191E0643099
:10008C0071050CF490E0892B8EB987B3806B87BB1C
:0A009C0002C06C98BE9A6E9A089597
:1000A60063E070E080E090E00E9436000E94670006
:1000B6000E947500813619F40E946C00F9CF8236D1
:0800C600B9F70E947100F4CFAC
:0A00CE0084B3846884BB8B9A089504
:0A00D80095B384E0892785BB0895E5
:0800E20085B3805885BB089529
:0800EA00779BFECF8FB1089552
:0400F2000C9400006A
:00000001FF
